:020000040000FA
:1000000000400020B1980100ED980100EF98010038
:1000100000000000000000000000000000000000E0
:10002000000000000000000000000000F198010046
:100030000000000000000000F3980100F5980100A6
:10004000F7980100DD390000F59F0100F7980100E5
:10005000F798010000000000B1990100F798010035
:100060009D07000065A50100699E0100F798010049
:10007000F7980100F7980100F7980100F798010040
:10008000F7980100F7980100F7980100F798010030
:10009000F79801009D9401002D960100D9080000F9
:1000A000E9080000F79801000000000000000000CF
:1000B0000000000000000000000000000000000040
:1000C00010B5064C2378002B07D1054B002B02D02E
:1000D000044800E000BF0123237010BD2001002070
:1000E0000000000000A80300044B10B5002B03D053
:1000F0000349044800E000BF10BDC04600000000F6
:100100002401002000A80300164B002B00D1144B43
:100110009D46402292029A1A924600218B460F4633
:100120001348144A121A2AF0ACFC0F4B002B00D0D3
:1001300098470E4B002B00D0984700200021040068
:100140000D000D48002802D00C4800E000BF22F04E
:1001500041FA200029002AF0EAF922F087F9C04686
:100160000000080000400020000000000000000027
:1001700018010020E42F0020000000000000000013
:10018000F0B5304B8FB007AE013800930431072330
:10019000019603F097FE0023B0682B4F0393B842FB
:1001A00003D011F0E9F9C3B2039370691825B8427E
:1001B00002D023F067FC45B2B0691924B84202D0DE
:1001C00023F060FC44B23069B8420DD005AA022188
:1001D00011F096FA059B186823F054FC059B45B274
:1001E000586823F04FFC44B201210E00A022AE401B
:1001F000A140164BD205D75815483E430590D6501E
:10020000D6588E43D650134A03218550C450280037
:100210002AF014FB200003212AF010FB079905A8FF
:1002200019F0CEFE0A9B039A089905A819F0D8FE8A
:10023000079909481AF04EFB084B01301880024814
:100240000FB0F0BD8CAD020068E1020014050000A3
:10025000002000400C050000C8320000C02D002026
:1002600010B50DF0A1FB034B002800D1024B180084
:1002700010BDC04624CA02001CCA0200F7B50D001A
:1002800014001E00002A07D00DF08EFB002805D1B7
:100290000B230124336064422000FEBD2E002F1981
:1002A0000DF08EFB741C3070BC4213D00A4B1B88BF
:1002B000009325F0FEFC01900DF076FB260000284F
:1002C000EED125F0F6FC019BC01A009B8342F3D8C7
:1002D000641BE1E73C00FBE7C02D002010B50C00DB
:1002E00011F062F8006B00280ED0E30702D5036816
:1002F000002B09D0A30702D54368002B04D0630765
:1003000006D58368002B03D10249034824F0FEFD83
:1003100010BDC046FA1A0300E0B20200F0B50F00AB
:100320008BB00400012138680392FFF7D7FF060065
:10033000012C22D13B68012118000393FFF7CEFF67
:1003400080210700490006A826F01FFE8024002314
:10035000089E6400029305AB2200310003983D68BB
:10036000A847431C28D105980B2800D0ACE0029B7D
:10037000002B34D159480BB0F0BD786811F0FCF86F
:10038000030002900133D5D00125337B029C2B4220
:1003900000D181E00026210006A826F0F6FD039595
:1003A000002C6ED0210006A826F02FFE011E1ED1C3
:1003B0004B494C4824F0AAFD002810D0029B1B1882
:1003C0000293844202D9241A3618C4E7802106A871
:1003D000490026F007FE802406006400BBE7029B6C
:1003E000414807933B7BDB0775D5404873E000230A
:1003F0000093220005AB386822F0A8FE059B05009B
:10040000002B0ED006A8210026F063FE05980B28CD
:100410005AD1079B0293002B33D106A826F0D7FDB3
:10042000A8E7844227D8089B30009C46079C634677
:100430009B5D039A59B2002912DA19001F25022286
:10044000A943C0290CD01900103D0132A943E0296D
:1004500006D004329343F03B1A00511E8A41043205
:100460009619A64212D8029B3000013B0293A64285
:10047000DDD31C0094E7211A06A826F02AFE002DE1
:10048000D1D11A4806A901F023F974E7E443029B8D
:10049000A419E418060083E7029906A826F086FD51
:1004A000039B029A0093089905AB386822F04EFE30
:1004B000059B002B0AD006A826F089FD059B07485E
:1004C0000B2B00D157E7180006F0AAFE337B0790EC
:1004D00005482B4289D106A9D5E7C04668E102004C
:1004E000191B03002CB2020048B50200F0E902001B
:1004F00030B50C0087B0012105002068FFF7EEFE43
:10050000022203A9606811F0F1F9049A022D06D9BC
:10051000A06811F031F8049A824200D90200002349
:1005200003990093206802AB22F010FE029B002B7F
:1005300005D005480B2B05D0180006F071FE4300CE
:100540000120184307B030BD68E10200F0B589B062
:100550000191019B040001211868FFF7BFFE07000D
:10056000012C18D9019B5B685C10631C13D021001F
:1005700004A826F00AFD631C03D0631E002C2FD0B4
:100580001C00012104A826F040FD061E0AD11B49CB
:100590001B4824F0BBFC0124102104A826F0F5FC24
:1005A0006442E8E70100019803AB012200683D685E
:1005B000A847431C0ED103980B2809D1059B019332
:1005C000012B09D104A826F002FD0E4809B0F0BDA8
:1005D00006F026FE00280CD1012104A826F079FDA2
:1005E0003B7B0948DB0700D4084804A901F070F8F8
:1005F000ECE733780A2BBED1F2E7C046191B0300A3
:100600002CB2020068E10200F0E9020048B50200E5
:10061000F0B51F0004000D00160085B00221FFF7A1
:100620005DFE03AB009732002900200022F08EFD12
:10063000039B002B05D005480B2B05D0180006F0B6
:10064000EFFD43000120184305B0F0BD68E1020052
:1006500070B506000D00002814DD002907DD1548DF
:100660001AF038F90124B04209DB002407E0010048
:10067000C02000061AF02EF90124A842F5DDE4B2EC
:10068000200070BD002907DDC02000061AF022F905
:100690000124B042F3DCE8E70024A042F0D00100DE
:1006A00004481AF017F90123A84200DC231CDCB22D
:1006B000E6E7C046FFFFFF3F8022044B52001A606E
:1006C0000123034A1360034A1360704700E100E00E
:1006D0000C8C0040008000408022054B5200DA67FD
:1006E000044BFF3A5A600022034B1A607047C04621
:1006F00004E100E0008000400C8C004070B5002553
:1007000001261E4B1E4C1D601E4B18601E4BE650F2
:10071000C046FFF7E1FF1D4B1D4AE660E250022292
:100720001C4BFF20E5500433E25008339218E2508E
:10073000C12380229B001203E250053BFF3BE550A2
:10074000C2244022144BA400195981430A4380213A
:100750001A510C341A5909061202120A0A431A5184
:10076000C0220434195981430A431A5180221204C9
:100770001A60802252041A6070BDC0467C2E002090
:10078000008000404C010020FC0F00004C050000E0
:10079000701700000405000000E100E070B51F4C78
:1007A0001F4D636C002B0AD0002363641D4B1B6834
:1007B0009847A823DB00EA5800018018E850A36C92
:1007C000002B09D00023A364164B5B689847164B97
:1007D0000001EA588018E850E36C002B0AD000238F
:1007E000E364104B9B689847A923DB00EA5800019B
:1007F0008018E850236D002B0ED000230B4A236590
:10080000AB580B495B18AB500A4A136806331360A8
:100810008022094B12045A6070BDC046FC80004023
:100820000080004008000020440500004C05000046
:10083000701700007C2E0020FCE100E0F7B501916C
:10084000032823D8134B8000C758C223124D9B00A6
:10085000EF50012344192364A8230F210F4EDB001E
:100860009C46E358AE59921BD218D3170B409A18E6
:1008700001990B4B1211C150C1239B00EF506346ED
:100880000020013212019619E650FEBD01204042BF
:10089000FBE7C04608AE0200008000404C050000A7
:1008A0000800002003280BD8074B8000C158C22342
:1008B000064A9B00D150064B064AC25000207047A2
:1008C00001204042FBE7C04608AE02000080004025
:1008D000080000206132020010B5024B1B689847E7
:1008E00010BDC0464C01002010B50024054AA100EF
:1008F0008B58002B02D00020885098470134042CDC
:10090000F4D110BD3C010020074A89008B58002B10
:1009100006D1885080211800044A4904516070476C
:1009200001204042FBE7C0463C010020FCE100E022
:10093000F0B50D00002785B0110003901E002800BF
:10094000104B0222009703F08DFAAB1C9B0018009D
:10095000029325F0C2F90400039B013D036045604A
:100960003368029D8360083D0437BD4202D12000F8
:1009700005B0F0BD0021F05905F038FEE31998608C
:10098000F2E7C046FFFF000010B50400431C02D090
:10099000024800F085FD024B1C6010BDAC2E00200B
:1009A000802E0020014B024A9A647047842E00205A
:1009B000AC2E0020F8B5070008680C0023F062F8A0
:1009C0000500606810F016FF0600022F0AD9A06823
:1009D00010F0D2FD02003100280022F066FC28F061
:1009E00084F8F8BD004AF6E740420F00044B8860E7
:1009F0000B60044B08004B600023CB607047C0467F
:100A0000080A03000F33020070B50E0010490400FD
:100A1000002522F0ABFC7368AB420AD8012B03D14E
:100A20000C49200022F0A2FC0B49200022F09EFC81
:100A300070BD002D03D00949200022F097FCAB00C7
:100A4000F31801229968200010F0C6FC0135E2E796
:100A5000F18703002A1B0300529B0300271B03009E
:100A600070B50D0001281ED0002803D0022807D041
:100A7000002004E04B680E48002B00D10D4870BDEB
:100A800000260D4C6B689E4203D301206400204376
:100A9000F5E7B300EB189968022005F041FC40101F
:100AA00024180136EEE74B685B001843E7E7C046C1
:100AB00024CA02001CCA02005CAE020070B5060027
:100AC0000D000B48002E0DD0B41CA400200025F012
:100AD00004F9084B46600360002D03D00023083C56
:100AE000A34200D170BDE958C21891600433F7E702
:100AF0005CAE020064AE0200F0B5070085B00E00E7
:100B000014001D2803D90025280005B0F0BD0123DD
:100B10008340324D1D4044D1314A13421FD1F82247
:100B200092051342EFD0200010F03EFC2D4B426A9C
:100B30009A4205D020002C4924F0E3FD041E0CD07D
:100B4000230031006268083300920831726838006F
:100B500004F0BCFA254D0028D6D1254DD4E720005D
:100B600010F022FC20490AF031F90028CBD073683C
:100B7000626829009818FFF7A1FF07003100736829
:100B800008379A0005000831380029F05EFF21007F
:100B900070686368800038189A00083129F055FFA2
:100BA000B2E703A9100010F025FD0025A842ABD044
:100BB0000398104D0028A7DD736800215843FFF704
:100BC0007DFF05002B003000083300930830039BA5
:100BD0007268042123F0BDFF96E7C0468000100034
:100BE00020000400ED09000064AE020024CA0200E7
:100BF0001CCA02005CAE020030B5040085B0042AB5
:100C00002DD1032540680D401FD1164B0A689A422A
:100C10001BD101AA04F0DEF9002802D1124806F027
:100C20000BFB019B02982900C01AFFF747FF050044
:100C300021006B6808319A00019B08309C0009195B
:100C400029F003FF280005B030BD0A000023010091
:100C5000206810F069FD023080000559F2E7002598
:100C6000F0E7C04648F102002C1B0300F0B50C0071
:100C70001100002285B01E0000920123200003F025
:100C8000F1F8184D002C1ED03568AB0703D1164B78
:100C90002A689A4217D0102025F01FF8002104007E
:100CA000306805F0A3FC002504260390039805F0A6
:100CB000FFFC071E0AD128002100FFF7FFFE0500F8
:100CC000200025F039F8280005B0F0BDAE4205D867
:100CD000F100200025F01FF804007600AB001F5142
:100CE0000135E3E75CAE020064AE0200F0B587B008
:100CF000039205910D9A03990500521A0CA90978DF
:100D000020200C00844339D030293BD00CA902911B
:100D10000121802401911C4036D0D40FA418641006
:100D2000171B002C37DD2600019B0493B34200DD26
:100D300004966B68049A029928689847049BF61AEF
:100D4000002EF1DC039B002B06D01A0005996B687E
:100D500028689847039BE418002F0CDDE419019ED6
:100D6000BE4200DD3E003200029928686B68984759
:100D7000BF1B002FF3DC200007B0F0BD0749029134
:100D80001021C6E70649FAE701271F4001D11400E8
:100D9000C7E71700D6E70024D4E7C0466F1B03005F
:100DA000801B0300F0B593B01C0018AB20CB05905E
:100DB0001B780F0016000793CB070BD48B0703D1CA
:100DC000854B0A689A4205D0380010F0D5FB012700
:100DD0004000074381231D4209D1079B302B06D1D8
:100DE0001A9B1B9A934200DA1A9200231B93380035
:100DF00027F058FE0AAA1300002806DBAB070FD520
:100E00002B231370123B04AA9B18E1B2EA0615D5F6
:100E1000022E0CD130221A704A1C5A7002330DE097
:100E200013006A07F1D520221A701923EBE7082E68
:100E30003BD130221A70AA0534D4013300220AA80B
:100E40001A701B1A2C200693AB06DB1718400EAB4A
:100E50000B9310230C931B9B0D92012B01DD402360
:100E60001D43402404ABDA752C400390029123D03B
:100E70003B00019200960DAA0CA90BA804F0D0FA31
:100E8000037807002D2B00D08EE004AAD3750D9BAC
:100E90001B9A013B01370D93012A00DD97E00026E4
:100EA000340035E00A000E32B7E7102EC6D13022EA
:100EB0001A700A001732B0E70AAB019300963B00A4
:100EC0000DAA0CA90BA804F0ABFA1B9B0700260087
:100ED000012B1DDD0D9B1B9C9C4200DA1C001A9B04
:100EE000A3425EDD01261C1B2E4001D026000024FB
:100EF00001239D432F330793002C09D0103B00930F
:100F0000002301941A0035490598FFF7EFFE04000D
:100F10006B0621D5172104ABC9180B78002B0AD01A
:100F200000230122009301920598FFF7DFFE1A9B30
:100F30002418013B1A93069B002B0DD0012301932B
:100F40000023069A00930AA90598FFF7CFFE1A9B83
:100F5000069A24189B1A1A931B9B012B01DC1A9BDF
:100F60001B931B9B0D9A0193079B390000930598D7
:100F70002B00FFF7BBFE2418002E09D0202300937E
:100F8000002301961A0015490598FFF7AFFE2418B3
:100F90000B980EAB984201D024F0CEFE200013B087
:100FA000F0BD00263400A3E71B9B012B00DC76E795
:100FB0000D9B1B9C9C4200DA1C00172304AA9B1863
:100FC0001B78002B00D00134069BE41887E71B9C9C
:100FD0009C42F8DA1C00F6E7A8C4020052A1030004
:100FE000F0B50600140000278DB00D002B78002B03
:100FF00015D1A94217D30B78002B00D148E14B1C27
:101000000493202300253022082104200893049B08
:101010001B78002B11D10693013B07935FE0252B32
:10102000E7D00135E2E76B1A04931A003068736861
:101030009847049B2900FF18DDE72D2B05D12C3B99
:101040001D43049B01330493E1E72B2B01D1293B82
:10105000F6E7202B01D10543F3E7212B01D10D4306
:10106000EFE7302B2CD110331D430892E9E7069AA5
:101070004A43D318303B0693049B01330493049BEB
:101080001B781A00303A092AF1D92E2B47D1049B3C
:101090005B782A2B18D0049B0A2101330493002388
:1010A0000793049B1B781A00303A092A17D8079A2D
:1010B0004A43D318303B0793049B01330493F0E772
:1010C00000230A210693DAE7049B02330493236882
:1010D00004340793DB43079ADB171A400792049BFB
:1010E0001B786C3B5A425341049AD31804931B78E3
:1010F0000593002B00D1CBE0642B00D1A1E022D8D6
:10110000502B29D00ED8453B022B00D8A9E0012254
:1011100004993068736898470137099452E00123B5
:101120005B427AE7059B622B3CD057D8582BEED117
:10113000231D0993069B01950393089B029341236A
:101140000093313B7BE0059B712B53D00FD8672B6D
:1011500000D886E0702BDAD1231D0993069B0195F8
:101160000393089B029361230093513B67E0059B27
:10117000752B5AD0782BEFD0732BC8D1231D246840
:101180000993002C49D0079B013303D1200029F09B
:10119000CCFC0790069B079A0193089B21000093C3
:1011A0002B000BE0231D09932368002B0ED0069B18
:1011B00004220193089B384900932B003000FFF76D
:1011C00095FD3F180499099C01310EE7069B052205
:1011D0000193089B314900932B00EFE7231D0993EE
:1011E00023680BA90B70069B01220193089B0093B7
:1011F0002B00E3E7231D0BA92068099324F0F7FCDB
:10120000079B0100013301D10B9B0793069B079AB3
:101210000193089B00932B00D0E7069B06220193C5
:10122000089B1F4900932B00C8E7231D0993069BC9
:1012300001950393089B029361230093573B00227F
:101240000AE0231D0993069B01220393089B019545
:10125000029361230093573B2168300022F095F8F8
:10126000AFE7072307349C432300206861680833F5
:1012700009931CF0A7FA079B011C0293069B059A91
:101280000193089B300000932B0022F0EBF898E7C5
:1012900038000DB0F0BDC0465D1B0300621B0300AB
:1012A000681B0300F7B50D00110000220600009234
:1012B00028001F000B4B02F0D5FD102024F01AFD72
:1012C000041E08D1084B094A094C5A6200232660C3
:1012D0002000A360FEBD39002800FFF7EFFBE060AF
:1012E000F4E7C046FFFF0000842E00205CAE020041
:1012F0009C2E002010B5013810C9FFF7DFFBE0601D
:10130000004810BD68E10200F8B57F2553B2040023
:101310000E0017001540002B0ADB6B1E012B07D8AF
:101320000B68586824F05EFC0100200022F01EF8D3
:10133000022D16D10F49200022F018F8F368002B77
:1013400002D05A68002A04D10B49200022F00EF87E
:10135000F8BD012A07D100229968200010F03CF85E
:10136000F6E7002DEAD03A00F1682000FFF74CFBC9
:10137000EEE7C0463B2C030052A10300C3680348BC
:101380005A68002A00D098687047C04668E1020099
:10139000136810B51400002B0AD00D4B994206D1EA
:1013A0000C4B52689A4202D10023C380236010BDC7
:1013B000094B994201D1C368F8E7084B02689A4289
:1013C000F5D1074B9942F2D1FFF7D8FF2060EEE745
:1013D0001502000068E102001D02000094B3020043
:1013E000FD0200000EB470B5050087B0102024F097
:1013F00081FC041E0BD11A4B1A4A1B4C9D611862CA
:101400005A62200007B070BC08BC03B01847002126
:10141000056081600120FFF751FB2521E060050098
:101420000B9829F06AFB061E09D10B9829F07DFB69
:10143000320001000B9800F081F9A860E1E702A8F2
:10144000102125F0A2FD0CAA0B9902A801920FF021
:1014500097FD02A90548E56800F03AF9EDE7C046B6
:10146000842E00205CAE02009C2E0020F0E90200D9
:1014700010B50300820708D1064A0168914204D1E1
:10148000054AD9680120914203D00449180009F0A7
:101490009DFC10BD38D10200A5120000D4AF02009F
:1014A00010B504000FF080FF034BC2689A4200D0D1
:1014B00024690023A36010BDA5120000F8B5160032
:1014C0001D0004000F000FF06FFF154BC2689A4219
:1014D00000D02469A068002811D10C3024F00AFC47
:1014E000A06000280AD003236360E288A16893000B
:1014F000CB180332E2801F605E609D60F8BDE38818
:10150000A18802338B42F0DB03318900012224F0F1
:101510000FFC0028F2D0A388A0600333A380E4E787
:10152000A512000070B5150004000E000FF03CFF7E
:10153000064BC2689A4200D02469A368002B02D1EE
:1015400033602B6070BDE2883260FAE7A5120000BC
:10155000032230B502400121002A04D1084C05685D
:101560000B00A54209D00B00034006D1002A04D18C
:10157000036804481B1A58424341180030BDC04656
:101580002CCA0200A8C4020010B50400FFF7E0FF57
:10159000012200280AD1032302002340022B05D197
:1015A00003480440063C2200541EA241100010BD16
:1015B000070080FF044B88600B60044B08004B6001
:1015C0000023CB607047C046080A03001D380200A4
:1015D00010B50FF0E9FE084B42680848D31859428D
:1015E0004B41AC215B428B4305495B180549FFF732
:1015F000F9FE09F08FFCC04626FDFFFF48B402004B
:10160000DA020000911B0300F7B504000E000193FD
:1016100001208B180A0000210093009B934212D8EE
:101620002725002900D0053D224F2A00390020003F
:1016300021F05DFF009B9E4214D32A003900200058
:1016400021F055FFF7BD1378272B08D0223B5D42D0
:101650006B41DBB20132002BDFD02725E4E700230A
:101660000100F7E73278AA4205D12A00124920008A
:1016700021F03DFF1AE011495C2A14D01F2A09D934
:101680007F2A15D0019B002B02D053B2002B07DB21
:101690003900ECE70A490A2A05D00A490D2A02D086
:1016A000092A05D10849200021F060FE0136C1E772
:1016B0000649DCE79A1F0300991F03009D1F0300E2
:1016C000A01F0300A31F0300A61F0300A91F030000
:1016D000194B70B506000C0098420FD14968A068FC
:1016E0000BF058FA051E09D0200025F070FC0023ED
:1016F000ED00236006331D43280070BD102024F048
:10170000ECFA6168050081600660A0680BF024FABD
:1017100063686860591C2368994208D1A368EB602C
:101720000023EA68A9685354A3602360E4E7A06833
:1017300024F0F1FAE860F3E7F0E9020070B5040084
:101740000D00002A05D00BF057FAC30006201843FD
:1017500070BD0BF01FFA0028F7D12A0021000248C3
:1017600021F034FFF4E7C046F0E9020010B50A00AA
:101770000100024821F02AFF10BDC04648B5020012
:10178000094B10B50340062B01D1C00810BD8307DB
:1017900008D1064B02689A4204D18168C0680BF0F8
:1017A0002BFAF3E7FFF714FF070080FFF0E90200D0
:1017B000064B10B50340062B03D1C00824F017FADE
:1017C00010BD8368C0680B60FAE7C046070080FF61
:1017D000F0B50F00002589B0110006001C0038008C
:1017E000009503232A0002F03DFB0E20AF420FD0EC
:1017F000012F0FD102AA102104A80FF061FB21686C
:1018000002A82A000FF0E8FD04A93000FFF760FFEE
:1018100009B0F0BD2068830722D1164B02689A42B6
:101820001ED104A9FFF7C4FF134B05002068034035
:10183000062B13D1C00824F0CBF90400002C04D1EE
:10184000049928000BF088F904001020049F24F06C
:1018500044FA06608760C5604460D9E74468EDE7F4
:1018600004A9012210F042F8002205990498FFF71C
:1018700065FFCDE748B50200070080FFF0B58DB0E9
:10188000040003910FF090FD04A906002000FFF76B
:101890008FFF039B01902F489A0705D11B68834255
:1018A0000AD02D4A934207D0C36800220293012137
:1018B00003AB029CA0470390002406AA05A9039845
:1018C0000FF0FCFE2500059BA3420ED82900002541
:1018D00008A825F06BFB0A9C059BAB4221D808A900
:1018E0003000FFF7F5FE0DB0F0BD069BA700D859FC
:1018F0000FF05AFDB04202D0184805F06FFC002CE2
:1019000001D0049BED18069BD859154B0340062BBC
:1019100005D1C00824F061F92D180134D3E780689F
:10192000FAE7002D06D02000049A019929F08DF8DD
:10193000049BE418069AAB00985807A9FFF738FFF4
:10194000079A0100200029F080F8079B0135E41870
:10195000C2E7C04600ED020064AE0200D61F0300DD
:10196000070080FFF0B58BB0049008680D00069268
:1019700007930FF019FD040068680FF015FD0600CD
:10198000A04202D06868FFF723FE08A92868FFF785
:101990000FFF040009A96868FFF70AFF089A05907D
:1019A000A3180393049B2700022B19D9AB681D4988
:1019B0008B4206D001213000009121000CF0A2FAE8
:1019C0000700049B032B0BD0EB68164A934207D009
:1019D0000122210000923000089A0CF093FA039043
:1019E000039B059AD91B069B38000093099B21F0A5
:1019F000CEFD002806D1079B0138002B0CD00A48E9
:101A000005F028FA094B9E4208D10100200022F07F
:101A10004BFB4400012020430BB0F0BD041B6400CD
:101A2000F8E7C04668E10200C21F0300F0E90200C7
:101A3000F0B5070087B008680D000FF0B5FC04A9E9
:101A400006002868FFF7B4FE05A904006868FFF7E0
:101A5000AFFE03902000022F07D901230093AB684B
:101A6000049A210030000CF04DFA059A041B049BE7
:101A7000A418064D9C4205D8039928F0D7FF0028EA
:101A800000D1034D280007B0F0BDC0461CCA0200BB
:101A900024CA020073B50D00060069462868FFF7E6
:101AA00087FE01A904006868FFF782FE0100022E8C
:101AB00002D9084805F0C0FB019A0098064D824201
:101AC00006D8801A201828F0B1FF002800D1034D55
:101AD000280076BDB01F03001CCA020024CA020001
:101AE000F0B58FB0079010680C0016000FF05CFC8A
:101AF0000690012C31D070680FF056FC069B98427E
:101B000002D07068FFF764FD0DA97068FFF750FE02
:101B10000D9B089009930DA93068FFF749FE0D9BB6
:101B20000B900493079B012B1CD1049B5D1E01238A
:101B30005B420A9300242700049B03940593059BB2
:101B4000002B13D1039B002B23D1214B069A0E208F
:101B50009A4200D01F480FB0F0BD072309931E4BD7
:101B60000893D8E7012300250A93E3E70B9B099923
:101B70005A1901230898009321F009FD002816D175
:101B8000039B002B19D1079B002B09D12F00049B2D
:101B90005C1E049B0134E21B934212D13068DAE7E9
:101BA000079B2C00012B0AD001232F0003930A9BD3
:101BB000ED18059B013B0593C1E72C00F7E7039F58
:101BC000E7E70B9B0698D91921F000FDC3E7C04653
:101BD000F0E9020038B502002F200300F0B589B00B
:101BE000049008680D000FF0DFFB040068680FF038
:101BF000DBFB0700A04202D06868FFF7E9FC06A9FA
:101C00002868FFF7D5FD060007A96868FFF7D0FD33
:101C1000069A0590B3180393049B3400022B19D93C
:101C2000AB681E498B4206D001213800009131007B
:101C30000CF068F90400049B032B0BD0EB68174AE7
:101C4000934207D00122310000923800069A0CF02E
:101C500059F903900025079BAB4212D1039B20004A
:101C6000191B22F030FA013045000120284309B049
:101C7000F0BD0599200028F0D9FE002808D10135D3
:101C80003400079A039BA6189E42F2D96D00ECE738
:101C9000200022F000FA0600F2E7C04668E10200E8
:101CA00010B50100014821F083FD10BDE74002009E
:101CB00010B50100014821F07BFD10BDF940020084
:101CC000F7B50600080001A9FFF772FD019B0500AA
:101CD000002B01D11348FEBD134B04009E4207D1D7
:101CE0000027019A631B9A4211D8002F07D1F1E710
:101CF0000E4B9E42F4D0019A631B9A4201D80C48C5
:101D0000E9E72078B04701340028F4D1E2E72078F1
:101D100002F02EFE002803D02078B047071ED9D04D
:101D20000134DEE71CCA0200D9490000F149000075
:101D300024CA020010B501000148FFF7C1FF10BD21
:101D40005949000010B501000148FFF7B9FF10BD67
:101D50007149000010B501000148FFF7B1FF10BD47
:101D60008949000010B501000148FFF7A9FF10BD27
:101D7000D949000010B501000148FFF7A1FF10BDCF
:101D8000F1490000F0B585B006000C0017000FF017
:101D90000BFB694605003000FFF70AFD0600042F23
:101DA00023D10098A30715D1114B22689A4211D173
:101DB00001AA210003F00EF9002802D10D4805F018
:101DC0003BFA0199029A2800521A711821F0FEFB81
:101DD00005B0F0BD00230100220028000FF0A4FC94
:101DE000335C01205B001843F2E70020F0E7C046B7
:101DF00048F102002C1B030070B51D008EB00029B5
:101E000000D174E018683B4C03002340062B05D03A
:101E1000830726D1384B02689A4222D10239012920
:101E200062D80AA9FFF7C4FC060028680440062C03
:101E300015D1C00823F0CCFE0400002C04D10A996F
:101E400030000AF089FE040010200A9D23F045FFAF
:101E50002A4B85600360C66044600EB070BD446864
:101E6000EBE7012940D80122104210D04410210094
:101E70000AA825F09BF80C9B002122001800019372
:101E800028F0FFFD0AA91D48FFF722FCE5E703A99A
:101E900025F0A8F9002805D0049A0399174821F0E5
:101EA00095FBDAE728680FF081FC1021002800D0AC
:101EB000411006A825F069F80AA9286804F096FBE5
:101EC0000400200004F0F4FB002801D106A9DAE7A1
:101ED0000FF052FBFF2802D9094804F0BBFFC1B242
:101EE00006A825F0B2F8ECE7064805F077F90648B1
:101EF000B3E7C046070080FFF0E9020048B50200E2
:101F0000BC1B0300D51B030038B5020073B50400E9
:101F1000080001A91600FFF74BFC0500042E06D1AE
:101F20000300019A0749200021F0E1FA73BD064938
:101F3000200021F01BFA0123019A29002000FFF75D
:101F400063FBF3E71B2003001A4803000A001B4B46
:101F500073B51A4005000C000340062B0CD1062A6D
:101F600004D1441A60426041C0B212E0C00823F0BC
:101F70002FFE0600606805E04668062AFAD1C80808
:101F800023F026FE002E05D0002803D0B04201D059
:101F9000002076BD69462800FFF70AFC01A905006C
:101FA0002000FFF705FC009A019B01009A42EFD147
:101FB000280028F03BFD44426041D5E7070080FF40
:101FC000084B07B50340062B08D0830704D10268ED
:101FD000054B92699A4201D0FFF7FAFA01A9FFF77F
:101FE000E7FB0EBD070080FF892500000A4B13B5F3
:101FF00003400C00062B08D0830704D10268074B6E
:1020000092699A4201D0FFF7E3FA01A9FFF7D0FBEA
:10201000019B236016BDC046070080FF8925000094
:10202000F0B59BB00B900591089210210EAA12A852
:1020300009930EF045FF059B089A934208D30B9A2B
:1020400012AB13CB13C21B6813600B981BB0F0BD0F
:10205000059B19785D1C7D290ED1089BAB4208D9E0
:10206000059B59787D2904D112A824F0EEFF05952F
:1020700007E0BC4804F0EEFE7B2906D012A824F04D
:10208000E4FF059B01330593D5E7089BAB4216D9C6
:10209000059B59787B29E7D02B007D2903D0212986
:1020A00001D03A290DD100252E001A78212A11D00D
:1020B000002206921AE0089A01339A4201D1AA48F6
:1020C000D8E71A787D2A03D0212A01D03A2AF2D102
:1020D0001E00EAE708995A1C91421CD95A780692C8
:1020E000723A012A17D802339942E8D900211A78A6
:1020F00005913A2A1FD15A1C5B7805927D2B1DD180
:10210000089B059A9342DAD90027059B1B787D2B03
:1021100017D09648AEE79648ACE719787B2905D1E9
:102120000132013308998B42F7D3C8E77D29F8D1F2
:10213000013A002AF5D1059F0593E6E7059B0122A8
:10214000F0E7002D48D000232878169302F01CFCFD
:1021500000283DD0099B1B680793002B01DD8548B3
:1021600088E716AA3100280021F0F9F9209A169B79
:10217000013A04009A4203D87F49804822F0C6FE03
:10218000219A01339B009D580122099B52421A60FB
:10219000B44231D27A4805F04FF80134B44204D247
:1021A00023782E2B01D05B2BF7D1611B0122280055
:1021B000FFF7C4FA002205000100229800F0BAFEE1
:1021C000002807D129006F4821F0A8F908F0A2FEE5
:1021D0002C00E3E74568DBE7099B1B68002B01DA6D
:1021E000694847E7209A013A9342C5D201332199C1
:1021F0009A005558099A1360002F00D0A6E1069B5B
:102200003C00002B04D0069C733C631E9C41E4B24E
:1022100010AA102116A80EF053FE2900220010A8C3
:102220000FF0DAF816A95948FFF752FA01235B427A
:1022300005000D931093002F00D18FE00EF000F8F1
:10224000229B059A0293219B39000193209B16A89B
:102250000093099BFFF7E4FE16A824F0E4FE002695
:10226000179B0400C3180A9303780693B34208D05F
:10227000474F1900380028F040FCB04200D16EE111
:10228000013423782B2B4ED000272D2B02D0202B6E
:1022900001D1043701342378232B02D1133B1F4390
:1022A00001342378302B07D1069B002B01D13D331D
:1022B0000693002E00D130360DAA0A99200021F095
:1022C0004EF9037807902C2B04D10C3B1F430300DD
:1022D00001330793079B1B782E2B06D1079810AA72
:1022E00001300A9921F03BF90790079B1C78002CDC
:1022F0001BD02100274828F000FC002803D0079BB2
:102300005B78002B11D02448B4E63100380028F067
:10231000F4FB002804D033000234069E0693B0E795
:1023200006900600ADE70227B4E716A824F04FFE9A
:10233000069B002B08D12800FFF726F93C230693C3
:10234000002801D002330693002E00D12036062348
:102350001F4229D0732C23D110488BE63C003E004D
:10236000E9E7C046E91C03002A1D0300421D0300E3
:10237000111D0300661D0300B01D03003CB10200E7
:10238000C91D030078B10200E61D0300F0E9020058
:10239000301E0300351E0300451E03005E1E0300B1
:1023A000632C01D1714865E6069B3D2B1FD05E2B47
:1023B0001FD03C2B01D13B3B1F432800FFF7C8F83F
:1023C00000282DD0632C50D026D8472C13D8452C6C
:1023D00026D2002C40D0252C22D0280024F0EBFE61
:1023E0002200030062496348FEF7FCFFEEE640234B
:1023F000E2E78023E0E7582C53D0622CEDD1002394
:1024000003930D9B022202936123019600972900FA
:102410000EA8FEF7C7FC34E6672C17D8652C1BD333
:102420002800FFF7B1F800286CD0002C56D06E2C95
:1024300054D0472C3FD8452C41D2252C50D02800D1
:1024400024F0B9FE220003004B49CCE76F2C1AD0D0
:10245000782C26D06E2CC0D1002303930D9B0196BF
:102460000293009761230A22D1E728000FF084F835
:102470000D9B16A90870012201933B0000960EA83F
:10248000FEF734FCFDE5FB0602D580239B001F43CD
:10249000002303930D9B019602930097612308226A
:1024A000B5E70022230003920D9A173B0292019692
:1024B00000971022ABE72300653B022BBFD8280012
:1024C0000FF0BEF8109B220002930D9B011C01939C
:1024D0003B0000960EA820F0C5FFD2E56724EEE78A
:1024E000280080240FF0ACF8244918F0E1FF109B7D
:1024F000640002930D9B3C430193011C0096230052
:102500006622E7E7069B3D2B01D11D48B2E5002C72
:1025100001D0732C13D116A92800FFF767FD109B7B
:102520000100169A002B00DA1092109B9A4200D9F3
:1025300016930D9B00960193169A3B009FE7280087
:1025400024F039FE220003000E494CE7069B002BC5
:1025500000D058E601235B420D9310936EE6667837
:10256000002E00D0D1E606968BE6C0468A1E0300F8
:10257000BD1E0300C0B40200EE1E03000000C842EE
:10258000221F0300571F0300F0B5A1B005000C0087
:102590000D920A2800D0E4E10DAB0F930123073D13
:1025A0001093059215403CD11368BF4A934206D15F
:1025B0000FAA10A9059820F0CAFE059502E0BB4AB3
:1025C0009342FAD1109B11A907930F9B2000089307
:1025D000FFF7EEF8002309900A93A30705D1B44A48
:1025E00023689B1A5A425A410A9214AA102118A829
:1025F0000EF066FC119A00279446099B099C6344DF
:102600000493049BA3420FD8079BAA48BB4229D13D
:102610000A9BA948002B00D0A54818A9FFF758F835
:10262000BAE100230593CDE72178252904D018A825
:1026300024F00BFD0134E4E7049B661CB34202D88E
:102640009E4804F007FC6178252904D118A824F0DD
:10265000FCFC3400EEE70025282915D1059BAB4290
:1026600002D1974804F0BAFDA01C06003378292B4C
:1026700023D1311A0122FFF761F80100059805F016
:10268000EDFD01270500013600233400402200261D
:10269000302104200B9320330693049BA34213D8CC
:1026A00000231293049BA34231D923782A2B70D1A3
:1026B000079BBB4221D88348D4E7049BB34201D88F
:1026C0008148BEE70136D1E723782D2B03D12C3B7F
:1026D0001E430134E1E72B2B01D1293BF8E7202BE6
:1026E00001D10643F5E7232B04D0302BD8D1164374
:1026F0000691EEE710230B93EBE77B1C0C93089BF2
:10270000BF00F8580EF038FF0C9F129001340123DF
:102710005B421393049BA34292D923782E2B17D1AB
:10272000049B601C83428BD963782A2B38D1079B8A
:10273000BB42C0D97B1C0C93089BBF00F8580EF01D
:102740001BFF0C9F13900234049BA34200D877E731
:10275000002D06D1079BBB42ADD9089ABB009D58FE
:1027600001372278672A45D8652A00D3B8E0582A6D
:102770005DD01DD81300453B022B00D8B0E0099B6B
:102780005249E41A009413005148FEF72BFE08F05A
:10279000C1FB200012AA049920F0E1FE0400B6E774
:1027A000002313AA0499139320F0D9FE0400CBE769
:1027B000632A49D0642AE2D103222B001340022B62
:1027C0000AD1444B2B40062B06D0FF23DB05E8182B
:1027D000904302F071FD0500139B0A220393129BA4
:1027E00000960293069B01936123290014A8FEF72B
:1027F000D9FA1FE7732A16D8722A00D380E0692A13
:10280000DAD06F2ABBD10B9B002B02D084239B0014
:102810001E43139B00960393129B08220293069B70
:1028200001936123E1E7752AC6D0782AA7D1130066
:10283000139A173B0392129A0292069A01920B9AEC
:10284000164300961022D0E7224B2B40062B05D0D2
:10285000AB0716D1184B2A689A4212D11CA928003E
:10286000FFF7C4FB1C9A0100012A01D01A48F9E6BF
:10287000129B019320230093330014A8FEF736FA2D
:10288000D8E62800FEF764FE00280BD028000EF0E2
:1028900073FE129B1CA90870019320230122009350
:1028A0003300EAE70D48DDE664AE020004C802002A
:1028B00048B50200B41C0300F0E90200EF1B03005E
:1028C000011C03002E1C0300181C03007F1C0300C6
:1028D000C0B40200070080FF551C03006E1C0300FB
:1028E00028000EF0ADFE139B22780293129B011C70
:1028F0000193069B14A80093330020F0B3FD99E6E2
:1029000016AA10211CA80EF0DBFA23781A00723ADE
:1029100051424A41D2B2722B09D00A9B002B06D0F9
:10292000AB0704D1594B2968994200D104222900F0
:1029300016A80EF051FD139A1D9B002A00DA13937E
:10294000139A9A4200D91A00129B1E9901932023D0
:1029500014A800933300FEF7C9F91CA824F037FB34
:1029600068E608000EF020FD16A907002000FEF71B
:102970001FFF0590072D22D118A90D980EF03AFEE1
:1029800003000020834207D01899814206DC404BA7
:1029900040489F4200D10E2021B0F0BD169B1CA8DC
:1029A000594324F003FB1E9B0121049300930598D7
:1029B000189B169A22F0CDF81CA938002EE60D9827
:1029C0000EF0F2FCB8420FD11CA90D98FEF7F0FEF4
:1029D0001C9E04901D2D17D8192D4ED2052D21D0E7
:1029E000122D1FD00020D7E7284B0D989F4209D108
:1029F00001221CA924F0F6FB0028CDD01C9B1D9EB3
:102A00000493E7E7FEF7E4FD1F2DEBD10123049AC1
:102A1000009316993300059820F0B9FD00282AD0BC
:102A20001D48B9E7169B002B07D10D980EF0BCFC92
:102A3000B84202D10D9C2000AEE7002EFBD0169BC1
:102A40001CA8F11824F0B2FA1E9B169A05991800DA
:102A5000069327F0FAFF169A1E9B9446059363444B
:102A600018003200049927F0F0FF1CA93800FEF787
:102A70002FFE0400DFE709488EE70096049B169AB4
:102A80000599280022F09BF8C8E7C04648B5020027
:102A9000F0E9020038B5020024CA02001CCA020094
:102AA000F0B5050087B008680C000EF07DFC0090C2
:102AB000012D28D96668022D26D0A0680EF05CFD95
:102AC00005000021080024F09CF804A9019020686A
:102AD000FEF76EFE049B0400C7183E4B9E4241D198
:102AE000BC422AD2207801F037FF00280FD1002DF8
:102AF0000FD121003A1B009820F068FD01000198D9
:102B00000CF00AF919E0334E01256D42D9E7013482
:102B1000E6E72600307801F01FFF002802D10136D9
:102B2000B742F7D82100321B009820F04FFD01007A
:102B300001980CF0F1F8B74209D8019807B0F0BD40
:102B40000136B74203D1002DF7DD013D06E03078B4
:102B500001F002FF0028F3D1002DF6DCBE42ECD2DA
:102B60003400C4E730000EF01FFC009B984202D0F6
:102B70003000FEF72DFD05A93000FFF737FA059B61
:102B80000390002B13D1144804F064F93E00210097
:102B9000321B009820F01AFD010001980CF0BCF8DF
:102BA000BE42CAD2059BF418002D00DD013D26006F
:102BB000059B0293002DE9D0029BF3189F42E5D3B9
:102BC000029A0399300027F031FF0028DFD0013648
:102BD000F0E7C04668E10200891F0300F0B5070076
:102BE0008BB00D00022807D829003800FFF758FFE6
:102BF000050028000BB0F0BD08680EF0D5FB08A951
:102C0000049028686E68FEF7D3FD0190A8680EF066
:102C1000B3FC041EE8DB431C18000021059323F0DD
:102C2000F0FF2F4B05009E4202D12E4804F004FB1A
:102C300009A93000FFF7DAF9099B0690002B02D1B1
:102C4000294804F007F9089A019B944663440293CB
:102C5000A3000393099F029BDE1B002C0BD0019B5A
:102C6000B34208D83A000699300027F0DFFE00286A
:102C700021D0013EF1E7EB68A6009F19019A029B63
:102C800001999A1A049820F0A1FC3860002CB0D069
:102C9000059B1C1BEB68A70099193A00180027F048
:102CA000DDFE6B6800211A1BEB689200D81927F033
:102CB000E8FEAC609DE7039AEB6894466344079393
:102CC000029BF1199A1BD21B049820F07FFC079BF2
:102CD000013C1860039B0296043B0393BAE7C0468D
:102CE00068E1020020200300891F030070B50C007A
:102CF0008AB0050004A920681600FEF759FD0023DC
:102D00000593049B0100C218029605AB06A8019426
:102D10000095FFF785F906A90248FEF7D9FC0AB02D
:102D200070BDC046F0E90200F7B545681600A86816
:102D30001F00019122F07BFF0400A86822F07DFFB4
:102D400022F075FF03000320584307340019800068
:102D500022F0C3FF074B040003606B68320043603E
:102D600000238560C36001993B0008300AF0FEFA39
:102D70002000FEBDA0B7020070B5050088680C00F9
:102D800025F03DFE230002000249280020F0AFFBA1
:102D900070BDC0465620030010B5024820F0B8FBB5
:102DA00008F0B8F894B3020010B50400082022F02F
:102DB00094FF024B4460036010BDC046DCB70200C4
:102DC000F7B5C56804001E00002D02D11D60280063
:102DD000FEBD03691830834205D1184B994203D0D8
:102DE000174804F0FBF919602000164F11007B68AA
:102DF0000830019363687B6005F0AEFE019B05001F
:102E00007B60012807D002280CD00023E3602369EF
:102E10001B683360DBE723691B683360002BD6D166
:102E2000E360D4E7A368986822F001FF002305302F
:102E30008000E36024186368EBE7C04668E10200A5
:102E400074200300842E002013B501ABFFF7B8FFF8
:102E500001280ED0104C02280DD0019BA34219D09E
:102E6000002B17D001AA01210C4820F04BFB08F0E1
:102E700051F8019816BD01980EF096FA074907F02F
:102E8000A5FF002801D10198F1E70198FEF776FA35
:102E9000A042F8D10020EDE768E1020094B30200FF
:102EA00010B50B00022808D14A6805491868FFF7D9
:102EB000CBFF002803D1FFF76FFF8A68F5E710BD4D
:102EC00068E1020010B500220149FFF7BDFF10BD07
:102ED00068E1020013B5114C01AB114A2100FFF764
:102EE0006FFF012803D0022805D0200016BD0D4930
:102EF0000D4822F00BF801980EF056FA0B4907F036
:102F000065FF0028F1D101980EF04EFA084907F04C
:102F10005DFF0028E9D1019807F0FCFF68E102009D
:102F200000AF02003620030058B3020088B0020050
:102F300094B30200F0B587B00092027804000F004D
:102F4000930703D5009B002B00D0F5E0D307DB0FE0
:102F50000ED07A4B3B40062B43D003233B4003D19A
:102F600077493868884203D0009B012B00D0E3E00A
:102F7000019353075FD52368A568DE08F600AE19F4
:102F8000B54230D3009B012B00D0D5E02368D9088F
:102F90006368994210D104316160A068C90022F0D1
:102FA000BAFE23686268DB08D21ADB00A060D20098
:102FB000C018002127F065FD07212368DD086A1C81
:102FC000D2000B4013432360A368ED005D195B4BF7
:102FD0002F601F40062F21D00122237893432370B6
:102FE0001CE00123C4E72868B8421AD1009B022BD9
:102FF00014D129002368721BD210083B013A6F6874
:1030000028002360D200083127F028FD2368DD085E
:10301000A368ED005D1900236F602B60280007B0E6
:10302000F0BD019B002B04D139000EF053FA0028AB
:10303000DCD10835A4E76368002B05D1009B012B88
:103040007AD1200000F07EF83C4B3B400593062BE4
:1030500027D1F80822F0BCFD03906168039817F0AF
:1030600035FC00260491049B0293029BDD00A368BB
:103070005D19286800281BD1009B012B5CD107211A
:103080002368DA080132D2000B4013432360002E7C
:1030900000D0350000236B60059B2F60062B9BD171
:1030A000BCE73900022003F03BF943100393D4E757
:1030B000042803D1002E1DD12E001BE0B84211D1EF
:1030C000009B022BAAD123680298083B23600130A1
:1030D000616817F0FBFBA368C900CB58002B25D112
:1030E0002B609BE7019B002B04D139000EF0F2F915
:1030F0000028E5D102986168013017F0E7FB049BD6
:1031000002918B42B1D1009B012B15D1002E0FD023
:10311000236835000833236000237360059B376004
:10312000062B00D17AE72378009A57E70423D7E7E4
:10313000200000F007F890E700256FE7070080FF08
:10314000F0E90200F7B54368040001935A1C00231C
:1031500017495800455AAA4206D90133222BF8D103
:103160005508AD18213B1D43E800A76822F0C7FDB4
:103170000723226865601340012200252360134362
:103180002370A060019B9D4203D1380022F0D4FD42
:10319000F7BDEE00B959002908D0042906D0012254
:1031A0002000FFF7C7FEBE19736843600135E9E7E9
:1031B000BC150300F8B505000023046886681449AF
:1031C000621C5800405A824206D90133222BF8D1A2
:1031D0005008821801201043002328606B60800093
:1031E00022F08DFD3700A400A860A419A74203D1E6
:1031F000300022F0A1FDF8BD3968002905D004296E
:1032000003D00122280020F097FB0437EEE7C046E8
:10321000BC15030070B5040008000EF0ADF9050000
:10322000431002D00F4803F015FE0F4920000EF0A6
:1032300043FE002807D0A02203216379D205C133C1
:10324000FF339B009950012362799340A022D2055D
:10325000002D04D0A121C9000448535070BD044979
:10326000FAE7C046F720030038F2020068E10200E6
:103270000C05000070B5050008000EF07DF90B2369
:1032800003410400DB0702D4094803F0E3FD2800F2
:1032900008490EF011FEFF22A40092001440A02263
:1032A0006B79D205C133FF339B0003489C5070BD3E
:1032B000C920030030F2020068E1020010B50C4999
:1032C00004000EF0F9FDA022D205002805D004214B
:1032D0006379C133FF339B00D150A223DB00D05868
:1032E0006379D8400123184025F0FFFB10BDC0468C
:1032F00030F2020010B504000EF0AAFD0A4B98420D
:1033000005D00A4B984202D020000EF0AFFDA0225B
:103310006379D205C133FF339B0098580007800FB3
:1033200025F0E3FB10BDC04630F2020048F2020077
:10333000032370B50B4004000800022B14D1194B75
:103340000B40062B10D00EF07BF91AF0E9F90022A1
:10335000154B18F063FC1AF041F9144B0500984224
:1033600005D9134803F076FD0EF006F9F5E711498B
:1033700020000EF0A1FD002807D0A02203216379D0
:10338000D205C133FF339B009950607929000EF0BC
:10339000C9FE002D03D1084920000EF08DFD07481D
:1033A00070BDC046070080FF0000E03FFF03000043
:1033B000D620030078F2020028F2020068E1020041
:1033C00013B50A4904000EF077FD052168466156E1
:1033D00016F092FA684616F0B5FAA0230021044AC6
:1033E000DB00D15025F081FB16BDC04628F202005B
:1033F0000070004010B508000EF0BEF8FA239B00E4
:1034000058430EF06BFE002802D0024803F022FD64
:10341000014810BDBA20030068E1020010B50800A1
:103420000EF0AAF80EF05AFE002802D0024803F06F
:1034300011FD024810BDC046BA20030068E1020039
:1034400010B504000EF004FD0C4988420DD00C4B61
:1034500098420AD020000EF02FFDA02200216379AF
:10346000D205C133FF339B00995020000EF0E8FCD9
:10347000044B002800D0044B180010BD60F202007D
:1034800048F2020024CA02001CCA0200A0230C2237
:103490000249DB055A5024315A5070474407000056
:1034A00010B504000DF080FF064B984208D0064B83
:1034B000984205D0054B984202D0054803F08EFE95
:1034C000200010BD64BB02001CBA020058BA020002
:1034D000AA200300044B054A05481A60054A5A60B1
:1034E00000221A817047C0465401002020030700C3
:1034F00068E1020074696275F7B51600314A0B0085
:1035000088321768002F02D12F4803F0A3FC022154
:103510002E4C2F4DE167A324E4002C592D4AE4B230
:1035200006343C192C4F3D68A54204D12B4B116049
:1035300001930198FEBD2578002832D1601C002B34
:1035400004D12900FEF712F901900BE05A68AA4253
:1035500000D92A000100186827F080FA01226B00C8
:103560001A430192002E0ED0621953785B423360E9
:10357000D37811791B0209040B43917852790B43DC
:103580001206134373603E68A91D6118721A200069
:1035900027F064FA0223751B0E4A063D3D60136056
:1035A000C7E7022D04D8002303600E330193D9E747
:1035B0002100042227F049FAE91E201D0022FEF70F
:1035C000BDF8C1E7842E00208E21030004E100E055
:1035D0000010004000E100E06001002068E102000E
:1035E0007FB5002101AA0800FFF786FF0A4B984229
:1035F0000FD00121019B03905A00029B0A438B408C
:103600000492064A032013400B4303A90593FDF7D8
:1036100055FA07B000BDC04668E10200FEFFFF7F1B
:10362000002213B501AC11002000FFF765FF094B24
:1036300098420ED02378022B08D96378012B05D14C
:10364000A378002B02D1E378012B02D0024803F0CB
:1036500001FC16BD68E102006E21030002220B4B43
:1036600010B5DA6700220121094B5A61094A11613C
:103670005A69002AFCD0084C88342068002803D0FE
:1036800022F05AFB0023236010BDC04604E100E095
:10369000FC10004000100040842E002010B5FFF701
:1036A000DDFF014810BDC04668E10200F8B5FFF734
:1036B000D5FF364C267865780636013575432800E7
:1036C00022F00BFB324A861916600022314B451955
:1036D00088331860304B01211D60304B5A608022C6
:1036E000D20511605A68002AFCD003212C4B615688
:1036F0002C4A00259950A178043A9950617A0832F1
:1037000099506168284A08269950217A274A284FFB
:1037100099500121274A9D5004329950264A9E50C3
:103720008122247892042243A324E4001A51022423
:10373000224A9C50224A9F50224F043A9F501827F9
:10374000214A9F50214AC0279850C12292009E5082
:103750001F4ABF00D0591F4E0640C0200002304310
:10376000D051C020400014501460102280301C58EA
:1037700022431A50184A5560596051680029FCD0FC
:103780000021116101229A60F8BDC0465401002059
:1037900060010020842E002050010020FC00004029
:1037A000001000400C0500001C050000240500006E
:1037B000FFFF00002C050000140500003405000088
:1037C0003C05000021100100540500000405000024
:1037D00000E100E0FF00FFFFFC10004010B5FFF724
:1037E00065FF014810BDC04668E10200F0B5050064
:1037F0008DB01600002802D0694803F0EFFC694B39
:1038000009AA190091C991C21A781F7A06925A78AA
:1038100005929A78039203229A5604925A685B7A28
:10382000019202937368AB424CD9EB000793B368E3
:10383000EA009B181A68002A1BD0042A19D058687D
:103840000DF0C6FEB368EA0004009858FDF798FF33
:103850000200CD38FF3806282ED816F09DFF040C44
:10386000131920262800631EFA2B00D995E0E3B235
:1038700006930135D6E7631EFD2B00D98DE0E3B238
:103880000593F6E7532C00D987E0E3B20393F0E702
:10389000072C00D981E0444B1B570493E9E7022C25
:1038A00000D97AE0E3B20293E3E70194E1E7FF2C69
:1038B00000D972E0E7B2DCE73C493D48FDF792FDF4
:1038C00007F028FB3B4B09AC88331B68002B12D157
:1038D000069B27722370059B6370039BA370049B58
:1038E000E370019B0A93029B63722E4B07CC07C3C4
:1038F00031480DB0F0BD069B2A4D2370059B6370C7
:1039000022882B889A420FD0FFF7A8FE039B2772CC
:10391000A370049BE370019B0A93029B63720ECC1D
:103920000EC5FFF7C3FEE3E70222244B2449DA6702
:103930000022244B4A6101321A614A69002AFCD0F4
:10394000039809AA907004981772D07001980A9091
:1039500002985072134870CA70C01B4A049898505D
:103960000398043A98500298083298500198174AE0
:103970009850174A9F5000224A6001325A604A68A4
:10398000002AFCD000220A61C02101329A60114B4A
:10399000013249005A501A60AAE70F498DE7C04624
:1039A00018210300540100201021030033210300DB
:1039B000C0B40200842E002068E1020004E100E0AF
:1039C000FC100040001000400C0500001C05000029
:1039D0002405000000E100E049210300214BF7B578
:1039E0005A68214D002A03D000225A600132AA6091
:1039F0001A69002A34D000221A61A323DB00E85898
:103A00001A4BC2B2883319680C78A24201D2140052
:103A100008708023DB00EB58012B1FD1144E154A90
:103A20003768A31D12680193FB189A4216D3621CD3
:103A3000380027F00AF8A923DB00EB58621CBB54BE
:103A400016F0FEFD3368020A1C19E270020C2271A6
:103A5000019AA0709B18000E607133600123AB6067
:103A6000F7BDC046FC10004000100040842E00202E
:103A70006001002050010020F7B5314F00933B005A
:103A8000883301921A680E00002A02D12D4803F0F3
:103A9000E1F902212C4B2D4CD96700232C4D636199
:103AA00001332B616369002BFCD0A323DB00EB58AF
:103AB0000099DBB27118994203D9B3423DD39B1BE5
:103AC0000093009B8837F31813703B6801000133A3
:103AD0001800320026F0B9FF009B002B06D0386892
:103AE000013680191A00019926F0AFFF00236360A8
:103AF00001332B606368002BFCD00123AB600023F3
:103B000023612369002BFCD00023636101332B6107
:103B10006369002BFCD00023636001336B60636832
:103B2000002BFCD00023C021022223610133AB60B3
:103B3000084B49005A501A60F7BD1E000023BFE72A
:103B4000842E00208E21030004E100E0FC100040E0
:103B50000010004000E100E007B501A9FEF746FAB9
:103B6000019B020003210248FFF786FF01480EBDBA
:103B70000C21030068E102001FB5012201A90DF02C
:103B8000B5FE002301981A000299FFF775FF01485E
:103B900005B000BD68E1020010B525F0FCF9014850
:103BA00010BDC04668E1020010B5C30708D4830702
:103BB0000ED10368094A934202D0094A934207D1C1
:103BC0000DF0DAFC002801DD22F05BF8054810BD9D
:103BD0000DF036FD17F078FFF4E7C046A8C40200E8
:103BE0002CCA020068E1020001220B4B10B51A60DA
:103BF0000A4A51680029FCD000215160A1220131FC
:103C0000D2009A5859600323D017184080188010AA
:103C100024F06BFF10BDC04600C00040FCC0004057
:103C200010B5002804D1044812F0A8FE034810BDC6
:103C300008680DF0A1FCF7E7E703000068E1020067
:103C400010B5034B186825F00FFB24F04EFF10BD94
:103C5000C02A002010B5034B186825F00CFB24F097
:103C600044FF10BDC02A002010B5034B186825F092
:103C700009FB24F03AFF10BDC02A00201FB5002127
:103C80000320FCF71BFF0A4B0400196801A825F06C
:103C9000DEFA019824F029FFA060029824F025FFA5
:103CA000E060039824F021FF2061200004B010BDE3
:103CB000C02A002010B5FDF763FD0023064A9900D5
:103CC0008958814205D001330C2BF8D1034803F009
:103CD000C1F8180010BDC046D8BD0200A3210300E2
:103CE000094A70B51378002B0DD1084D2C78E4B239
:103CF000002C08D1013313702B70054B1868036832
:103D00005B6898472C7070BDCA2D0020CB2D002019
:103D1000C02A002010B5FFF7E3FF054B186825F017
:103D2000D2FA044B8000C3580620DB00184310BDB4
:103D3000C02A0020D8BD020010B50800FFF7BAFF66
:103D40000400FFF7CDFF054B186825F0BCFA044BC3
:103D5000A04200D0034B180010BDC046C02A00206E
:103D600024CA02001CCA020010B50800FFF7A2FF17
:103D70000400FFF7B5FF0123A340064A0648118857
:103D80000B4200D105481188994311800022044B51
:103D90001A7010BDC22D002024CA02001CCA0200E5
:103DA000D42D0020F8B5FFF79BFF134C1348237860
:103DB000002B1FD020780021C0B2FCF77FFE012627
:103DC00000220F4F2378934212D915005308FB5C51
:103DD0003540AD002B410F252B400A4D9B005B5910
:103DE00006259100DB0041182B438B600132E9E787
:103DF00000232370F8BDC046D42D00205CAE020025
:103E0000CC2D0020D8BD020070B543885A1E0A2A66
:103E10001FD801252A009A400F490888024392B210
:103E20000E480A8002780F2A13D802780C4CEA4018
:103E3000A25C0678D2B20F212E420BD00A401B01A1
:103E400013430278DBB25208A35403780133DBB288
:103E5000037070BD8A43F3E7C22D0020D42D0020EB
:103E6000CC2D002010B51C0002AB1B78002904D01B
:103E7000002B02D10E4803F0B1F9A24207D18242D1
:103E800014D003000B490C48FDF7ACFA06E082425F
:103E900006D9121A09490848FDF7A4FA07F03AF8BA
:103EA000844203D2030022000549ECE710BDC0465E
:103EB000B3210300DC21030048B4020015220300F3
:103EC00047220300F0B50024170087B00C9D039033
:103ED0000491059302940194059B9C4206D1019B99
:103EE000039A934240D2254803F078F9039B9C4201
:103EF00013D26B889B05F6D4019B049A013301937E
:103F0000A300D058FF226B88A6001340012B24D1B8
:103F10000DF070FC0D9B985517E0062329880022B0
:103F2000C90019433800FFF705F8002810D16B8845
:103F3000DB0506D52A8812491248FDF753FA06F028
:103F4000E9FF0D9A6968A300D15001340835C3E731
:103F5000029B406801330293D4E7022B01D10DF09C
:103F60000BFB0D9B9851F0E73B68029ADB089342EC
:103F700001D90548B8E707B0F0BDC0468D2203005F
:103F80007622030048B40200AE2203000300203B67
:103F90005E2B00D93F20052320384343014A106897
:103FA000C018704768000020044B0B6043684B60EA
:103FB00083680800CB6000238B60704738BF020025
:103FC00070B50500080068430130401008300C004F
:103FD00021F083FE0122044B857103600379447153
:103FE0009343037170BDC04644C2020010B503790B
:103FF000DB0702D5014803F0F1F810BDCC22030025
:1040000070B50500202021F068FE05210B4B04004F
:1040100003600800FFF7D4FF6B68EA68A0602361C3
:1040200062602A7C2000A276AA689B1863616B7C80
:10403000E3761FF06FFD200070BDC04688C202000D
:1040400070B50D000400FFF7D1FF28000DF094FAC1
:104050000100092802D9044802F0FCFE20001FF0EC
:10406000BBFD024870BDC0466923030068E1020041
:10407000F7B5C3684269040093420BD1037E052B58
:1040800008D1C37E181E43D020001FF043FDA06856
:104090001FF0B0FD012500266B1E0193A7683200BA
:1040A000290038001FF064FD320003000199380038
:1040B00001361FF06AFD052EF0D10135052DEAD13C
:1040C00000252A0000230421A06801351FF05DFDB2
:1040D000052DF6D1227E637E9A421AD2207FFFF709
:1040E00055FF002507000426227E7B5DB21A13418E
:1040F000012213400832534304212A00A0680135ED
:104100001FF043FD052DEFD1237EA06801332376F8
:10411000FEBD9A42F8D1E36861695A1CE2608A42A6
:1041200005D120232377A023DB002383ECE75878F5
:104130002077FFF72BFFA17E0500002901D0064B59
:10414000F3E71FF0BEFC4042207628001FF0D1FCB0
:1041500001306076D8E7C046FF050000F0B50C00DE
:104160000B6889B0070018000493FFF73FFF6568EC
:1041700028000DF019F91E4B984202D01D4803F09B
:104180002DF8072F01D11C48F9E7A0680DF0F4F9CC
:104190000690E0680DF0F0F9079020690DF0ECF959
:1041A000059060690DF0E8F9059B0600002B01DB26
:1041B000002802DA114802F04DFE062F14D0A06943
:1041C0000DF0DAF90700E0690DF0D6F9059B0390D0
:1041D0000093280002970196079B069A04991FF006
:1041E00037FD074809B0F0BD00200700EEE7C046E4
:1041F00044C20200F92203000C230300262303001B
:1042000068E1020070B50400080016000DF0B4F972
:10421000050030000DF0B0F90600002D01DB00288C
:1042200002DA0C4802F016FE20001FF0FCFCA84247
:1042300004DD20001FF005FDB04201DC0648F1E777
:104240003200290020001FF0E0FC43000120184349
:1042500070BDC046822303009B230300F8B50D0008
:104260000C682000FFF7C2FE68680DF085F90600B3
:10427000A8680DF081F90700002E01DB002802DAA2
:104280000F4802F0E7FDE8680DF076F9050009280F
:1042900001D90C48F5E720001FF0C5FCB04204DD51
:1042A00020001FF0CEFCB84201DC0748E9E72B00F4
:1042B0003A00310020001FF068FC0448F8BDC046F9
:1042C00082230300692303009B23030068E10200AB
:1042D000F7B50E002549040001921FF008F9019B73
:1042E000002B03D1224920001FF001F921492000B1
:1042F0001FF0FDF8002530001FF0A3FCA84225DDCB
:10430000002730001FF08FFCB8420CDD39002A0076
:1043100030001FF07AFC184B18491A5C20001FF07F
:10432000E6F80137EDE7164920001FF0E0F8019BA1
:10433000002B09D130001FF084FC0138A84203DDB6
:10434000104920001FF0D3F80135D4E709492000B7
:104350001FF0CDF8019B002B03D10B4920001FF06B
:10436000C6F80A4920001FF0C2F8F7BD2824030050
:104370002F2403003B2403003D2403009A1F030065
:1043800015A40300352403005E3C0300529B030088
:10439000F0B50E00110000228BB01C000092032328
:1043A0003000FFF75FFD032E00D9D5E0300016F096
:1043B000F3F9020B919105210800FFF701FE0700B8
:1043C00038001FF017FC18E02068644B0340062BF0
:1043D00007D0830700D07AE0614B02689A4200D090
:1043E00075E007A9FDF702FE079B03900593012BDB
:1043F00006D100781FF028FE070038000BB0F0BD92
:1044000000231E00039A029303990598511A8842CB
:1044100015DD11780A2901D03A2908D19E4200DA27
:104420001E00029B0133029300230132ECE70133AB
:104430002029FAD03929F8D94A4802F00BFD002B7F
:1044400005D0029A013202929E4200DA1E000299C1
:104450003000FFF7B5FD002507002C00039B0493F7
:10446000039A049B9B1A059A9A4223DD049B1B78AE
:104470000A2B01D03A2B0FD1A64207DD21000023E1
:104480002A0038001FF081FB0134F5E700240135D4
:10449000049B01330493E3E7202B07D10023210081
:1044A0002A0038001FF071FB0134F1E7392BEFD8F7
:1044B000303BF4E7029BAB429FDDA6429DDD21002D
:1044C00000232A0038001FF060FB0134F5E726487E
:1044D00002F084FE20680DF04FF8050060680DF0D2
:1044E0004BF8029001002800FFF76AFD0700022E3A
:1044F00000D165E7012207A9A0680DF0F7F9002DAA
:104500000BDB029B002B08DB0024089B0394049325
:10451000029B049A6B43934205D014488DE7039B9A
:1045200001345B190393029B9C4200D165E700268E
:10453000AE42F4D0039A079B9446049363449A5D79
:10454000131C092A00D909233100DBB222003800EC
:104550001FF01BFB0136EBE70548B9E7070080FFBA
:10456000F0E90200AB230300D4230300EC23030093
:1045700009240300F0B585B00191050000210198E0
:1045800016F0E4FA041E02D0214802F063FC280071
:104590001FF049FB060028001FF053FB010030000C
:1045A000FFF70EFD070028001FF03DFBA0422CDDA9
:1045B000002628001FF037FBB04224DD3200210026
:1045C00028001FF022FB17F09FFA019916F070FFE8
:1045D00019F0A6F800220F4B17F020FB0E4B00221B
:1045E0000290039116F078FA0923002804D002986B
:1045F000039918F0F3FF03003200210038001FF088
:10460000C4FA0136D5E70134CDE7380005B0F0BD76
:104610003E2303000000E03F00002240F0B587B0D9
:104620000491059207001FF00CFB040038001FF0F6
:10463000FAFA029004981FF004FB0190A04202D005
:10464000194802F007FC01990298FFF7B9FC002510
:104650000390029B9D4223DA0026019BB3421DDD9D
:104660003200290038001FF0D0FA3200040029007F
:1046700004981FF0CAFA059B002B0AD02318092BB7
:1046800000DD09233200290003981FF07EFA01366D
:10469000E3E7231ADA43D2171340F3E70135D8E7EB
:1046A000039807B0F0BDC04648240300F8B50400E5
:1046B00008000D0016000CF077FE164FB84201D02E
:1046C00000200FE0053C042CFAD8200016F05AF820
:1046D000141403F80B0030000CF0B2FF011C28008A
:1046E000FFF748FFF8BD30000CF0AAFF011CFE20C8
:1046F000800516F005FDF1E730000CF055FEB842DC
:10470000DED1624262413100D2B22800FFF786FF5B
:10471000E8E7C04644C20200F7B507000193142041
:1047200008AB0E0015001C7821F0D7FA044B476047
:104730000360019B8660C56003744474FEBDC0467F
:10474000C4C2020070B505000C2021F0C6FA052194
:10475000044B0400456003600800FFF731FCA060D3
:10476000200070BDECBE0200004870478CC3020000
:10477000F0B589B0002807D1664B674819681EF06C
:10478000F5FD664809B0F0BD0D68654B9D425BD1F3
:104790000021080022F035FA002405000590614B45
:1047A0005A680192944217D300255F4A05A9012057
:1047B0000AF012FB07AA06A9059822F039FA069B0F
:1047C00003339B0801939B000393019B524EAB4222
:1047D00010D156493000D2E79B680193019AE3005B
:1047E0009958002904D0042902D028000AF094FA2C
:1047F0000134D4E72F00AB000293079B029A98582C
:10480000FDF7DEFB010030001EF0B0FD019BFF183C
:10481000069B9F4212D212231C1A002C07DD013C7A
:1048200007D2039A029B944663440293E5E712344D
:10483000F3E73F4930001EF099FDF0E73D493000B5
:104840001EF094FD0135C0E728000CF0ADFD3A4B99
:1048500042689A4200D16D68280009F081FA061E6C
:1048600000D08EE72C4C354920001EF07FFD310032
:1048700028000CF0CBFD280022F09DFC30490200FE
:1048800020001EF034FEAB0732D12B682D4A934234
:104890002BD1280021F011FA20F0B9FC00250600E8
:1048A000A84200D16DE773689D4200D369E7B26802
:1048B000EB00D3181F68002F15D05B682249200039
:1048C00001931EF053FD002138000CF09FFD1F499D
:1048D00020001EF04BFD002101980CF097FD1549BA
:1048E00020001EF043FD0135DDE7194A934203D055
:1048F00028000CF059FD0500A86B002800D140E706
:10490000830700D03DE7134B02689A4200D038E796
:10491000C2E7C04660000020D4AE020068E1020099
:104920001615000090E5020038B80200DA240300F2
:10493000332403005E3C030027020000FE24030032
:104940000625030074E60200322403001625030046
:1049500038D1020004C8020000237F2803D8034B8B
:104960001B5C9B07DB0F18007047C0461B2503002C
:1049700000237F2803D8034B1B5C1B07DB0F1800A9
:104980007047C0461B25030000237F2803D8034B34
:104990001B5C5B07DB0F18007047C0461B2503003C
:1049A00000237F2803D8034B1B5C5B06DB0F18003A
:1049B0007047C0461B25030000227F2808D8054BFE
:1049C0000132195C0C23194202D15F384242424144
:1049D000100070471B25030000237F2803D8034BDA
:1049E0001B5CDB06DB0F18007047C0461B2503006D
:1049F00000237F2803D8034B1B5C9B06DB0F1800AA
:104A00007047C0461B25030010B5040022F00BFBC5
:104A100024F0DFF901280BD00649200022F01EFB0C
:104A2000200022F000FB24F0D4F9022800D000205E
:104A300010BDC046D7250300F0B59DB000AF0C688F
:104A4000032835D9CB68FB60042835D00D690020D8
:104A50006D102BD41C232000F918FDF7C7FA7861DC
:104A6000002D5AD0954C9649606803F0F7FB06007C
:104A70006068002293490430FEF75CFA1823FA18A4
:104A8000D11804003000FDF7B1FA3B6B013D010085
:104A9000C318002C05D1994203D2013B1A782E2A63
:104AA000F9D1013D0ED299420FD1874802F0D2F9D7
:104AB000864B0025FB60CDE70025CBE7013B1A784C
:104AC0002E2AEED09942F9D3EBE7FE695C1A250055
:104AD000002E01D0751C2D192B006A460E33DB0801
:104AE000DB00D31A9D46220018003B6125F0ADFF84
:104AF000002E08D02E233A69601C135510187969CE
:104B0000320025F0A2FF2900386908F075F8062464
:104B10003B69C0000443FD617B612000FCF730FE6F
:104B200009F0A2F8061E15D02E21786925F0E5FFC0
:104B300000280BD0654BFA689A4207D17B69C11AED
:104B4000180008F059F809F08FF806003000BD464B
:104B50001DB0F0BD182318000125FA18D218381816
:104B6000103B4021C01822F029FABE603E61FB696B
:104B7000AB4205D2554BFA689A42E7D0BE68E5E7EA
:104B8000AB4204D07B695B5D2E2B00D093E0290003
:104B9000786908F031F87B6A3860002B17D12A0059
:104BA000082479691833F818001922F0D2F918236B
:104BB000FB181819FFF728FF78607B68002B14D1C9
:104BC0003A6843494348FCF70DFC06F0A3F9182363
:104BD0000824FA182F2110190CF07EF93B69396965
:104BE000EA1A7B6959181823DDE7386809F03CF8A0
:104BF000041E4AD1386809F005F8FB690400AB428D
:104C000013D1354BFA689A420FD17B68012B0FD034
:104C1000324A2B49406820F0E5FA18220823BA18D6
:104C2000D11820001FF0CEFA2FE07B68012BF4D1C1
:104C30000022796AB86AFCF781FD29490200200048
:104C400001F0B0FC7B6A18227B600823B818C018FA
:104C50002F210CF041F918220823B818C018214957
:104C600022F0FCF918220823BA18D01822F0DBF938
:104C700024F0AFF8022806D118220823BA18D11858
:104C800020001FF09FFA7B687B62BB68002B0CD072
:104C90007A693B699446E91A6344180007F0ACFF4F
:104CA00022000100B86801F07DFC002E00D1260032
:104CB0006B1C3B61BC60013559E7C046842E002067
:104CC000561000006E1000009B25030068E10200F2
:104CD000BA250300C4B002001CCA0200461000003E
:104CE0000D020000CF25030007B504496A4601F014
:104CF000FFFB0098431E9841C0B20EBD0D0200009C
:104D000010B504000C2020F0E8FF034B4460036062
:104D100001235B42836010BDFCC3020070B5150027
:104D200004001FF0BAFA2A00024920001FF073FAAB
:104D300070BDC0467D42020070B543790D0000246D
:104D4000032B06D9836A074C9200E41AC369D3582F
:104D5000E41803211FF092FA447024120570847045
:104D600070BDC046FD7F0000F7B5002304006171EF
:104D700083608371E260036101330F0015004361BA
:104D8000032906D80121836949429A00C06925F0A8
:104D900078FE0023A3622362AA8BEB8BD218002A31
:104DA00000D10132384E200031001FF034FA2A8C35
:104DB000310020001FF02FFAE3682000197D1FF05A
:104DC00056FAE3682000997D1FF051FAE36820004D
:104DD000197E1FF04CFAE3682000997E1FF047FA15
:104DE000042F27D1636A226A31009A1A20001FF02B
:104DF00012FA3100EA8920001FF00DFA3100AA8969
:104E000020001FF008FA0026AB8CB34217DCFF210C
:104E100020001FF042FA042F35D1EA8A2B8B02378B
:104E2000D31801930023019A9A422CD0AA8C002116
:104E3000009223E0022120001FF00CFAD9E7AA6AB1
:104E4000F300D3181A78032A03D1997820001FF0B1
:104E500024FA0136D8E70126A86ACA0082185078D9
:104E600030420AD05088984207D15268D200606B15
:104E700099003A430A500133D5E70131009A8A423A
:104E8000E9DC0222F2E7F7BD55420200F7B5234BF9
:104E90000500A8331B680191022B0DD847698F428A
:104EA0000AD2836A0269CF1B9C1A3B00234304D1B8
:104EB000AB6A2B61019B6B61F7BD062F01D90F2CEB
:104EC00018D900941F2C01D91F230093009B0026A2
:104ED0009C4203D83E00032F00D90326012128005D
:104EE0001FF0B8F9009A730113430370009BBF1BB6
:104EF000E41ADAE70A4B3E009F4200D91E00022165
:104F000028001FF0A7F9702233091340F03A22431A
:104F10001343037046700094E8E7C046842E0020D7
:104F2000FF07000070B50D00012104001FF033FAE7
:104F30000E2D14D00F2D17D010210D2D10D01721AC
:104F400020001FF0AAF90322A36A0421033393432C
:104F5000A36220001FF092F9044B036003E01121CB
:104F600020001FF09AF970BD1221F9E74CE502000C
:104F7000F8B5174F05000C0016000F40002A1AD193
:104F800011001FF008FA23040FD5322128001FF06A
:104F900084F9322128001FF080F9322128001FF007
:104FA0007CF9322128001FF078F93A0035212800D9
:104FB000FFF7C2FEF8BD3A004621FFF7BDFE7F2392
:104FC000210A99433143C9B228001FF066F9F1E77D
:104FD000FF7FFFFFF0B585B005001600080003ABAA
:104FE00002AA01A921F036FF0398364FB84209D032
:104FF000032807D00CF0C0FAB060002804D1324872
:1050000001F028FF0123B3600198B84229D10024A0
:10501000B368A34200DC6C1E0298B84225D1B36885
:10502000002B47DD2800002C2ADA641901D5B3686B
:10503000DC17002834DA401901D501204042B3685A
:10504000002B00DA0130B368002B2DDDA04200DA1E
:105050002000013B706058425841C0B2346005B036
:10506000F0BD0CF089FA0400D6E70CF085FAB368BD
:10507000002801DBDA0F8018002CD6DB002B03DDC3
:10508000AC42D6D92C00D4E7002BD2D0A54200D810
:105090006C1E002804DA4019D4D501204042D1E723
:1050A000A842D0D92800CEE7002BD2D0A042D0DD34
:1050B000601CCEE7002C01DA0020B6E70020834216
:1050C000E4D1C0E768E10200DB250300F0B506008B
:1050D00085B017001B2805D10A9A974209D00020F5
:1050E00005B0F0BD19281AD01C281AD00A9A0A97C0
:1050F00017001A000B0011000A9A0192BA4200D957
:1051000001971D000C0000230093009B019A93421D
:1051100009D10A9BBB4220D0E1D30120E0E71A2647
:10512000EAE71D26E8E70295039401CD02CC0CF0D6
:10513000D1F9002802D0009B0133E5E71B2ECED029
:10514000039B30001A68029B196801F08BFE044B28
:10515000C01A43425841C0B2C2E71A2EDDD1BEE7A1
:1051600024CA0200F0B51E0085B0039018680D0037
:1051700017000CF019F97368019002930024022FB4
:105180000ED90123B26829000CF0CEFA0400032FD7
:1051900006D029000123F26801980CF0C5FA050039
:1051A000A54202D8084801F055FE039AA3000299CF
:1051B000D0580CF08FF9002801D10134F0E701201C
:1051C0006400204305B0F0BDF5250300F0B5486844
:1051D00087B00F000CF0D0F9041E02DA002001F0B5
:1051E00039FEBB68164A01939D186B1E9D41010054
:1051F00002A821F0DBFE049E22000021300025F0F1
:1052000040FC3868EDB2C3070AD4330022002900FD
:1052100023F038FC02A90B48FCF75AFA07B0F0BD9E
:1052200043102000042C00D904200749019F0022CC
:105230008F4200D0221AB218290022F015F8E9E7AF
:105240008AEBFFFF48B5020076140000F0B50C00B1
:1052500087B0012203A960680CF048FBA3681349DA
:10526000039A8B420DD10126049976424C1E01917E
:105270001419049900200D00002D05D123F050FCD5
:105280000DE014000126F4E7094F013DB84208D9AA
:1052900008481B18581E8341D8B223F0E4FB07B01E
:1052A000F0BD277800023843A419E5E77614000022
:1052B000FFFF3F008AEBFFFF70B546007508041C36
:1052C000291C281C16F0EAFB00280BD11649281CC3
:1052D00015F050FC002808D0144915481EF025F997
:1052E00005F018FE134801F0B5FD002C11DA002E70
:1052F00012D0FF23DB05E3189C22D20593420BD981
:105300000FF042FC211C0500043020F0C2FE2800F2
:1053100070BDE30DDB05EFE7201C16F0D5FB012582
:1053200040000543F3E7C046FFFF7F7F1C260300D4
:105330001CB3020035260300F0B50C00002585B033
:10534000110020001E00009502232A00FEF78AFDAE
:105350000120AC422BD0844231D13068204226D18A
:1053600003230340AB4203D11C4A016891421ED083
:105370001B4A0240062A06D0002B0DD10268194BA9
:1053800092699A4208D103A9FCF730FE00231A0063
:10539000039909F087FF0AE0032302001A40022A5A
:1053A00007D1FF22D20580189843FFF785FF05B08B
:1053B000F0BD0CF0E1F8012340001843F7E703A922
:1053C0003068FCF713FE04007068039F0CF0D4F8FB
:1053D0002B00020039002000DBE7C046A8C4020011
:1053E000070080FF89250000F8B51F000B4B150052
:1053F00059180139097815F0E3F900260400B7427D
:1054000004D00130032115F0DBF90600281E01D07D
:1054100025F08BFB0334A4192018F8BD0C260300DB
:10542000F0B58DB00A9214AA147815AA1278060065
:105430000F000792DA0742D55D100023002D01DA34
:105440002D236D420693139A079B12992020FFF794
:10545000CBFF3B680590834204D220F03EFC059BC5
:1054600030603B6000213768059BFB185A1E1170A5
:105470008D4240D00A3C099208920B941299280060
:1054800015F024FA0B003033092901D90B9B5B1866
:10549000089A541E2370079B002B48D000282DD05B
:1054A000A7422BD2099B1B1B032B05D1079B013C59
:1054B0002370A74222D2099405000894DEE79A07D8
:1054C00012D1244A196891420ED1079A029403928C
:1054D000139A39000192129A00920A9A23F099FACB
:1054E000040020000DB0F0BD0023326813700A9A4A
:1054F00034681360F5E79C1E30232370139B002B48
:1055000005D0180025F011FB201A87421FD3069BF7
:10551000002B04D0BC4202D9069B013C23703368A7
:10552000059A9B181B1B0A9A013B1360D9E7A742F7
:10553000E4D20028C0D1E1E7C2540133139AD25C0F
:10554000002AF9D1069B0400002BE5D1E7E70023F0
:10555000F4E7C046A8C402001300144A10B50400C2
:10556000934204D10122200001F07CFC10BD104ABE
:10557000934201D10322F6E70020072CF6D10D4A11
:105580001A40062A0ED09A07F0D11A680A4CA24295
:1055900008D00A4CA24205D0094CA24202D0094CC4
:1055A000A242E3D10A0007201900DDE71CCA02006D
:1055B00024CA0200070080FFF0E9020048B502009B
:1055C00064AE020000ED020080235B051869034B06
:1055D0001B7843438020C002C01A7047D62D00209C
:1055E00080235B051869034B1B7843438020C0026E
:1055F000C01A7047D72D002070B5084DC4012B6824
:105600000021181921F06BFC2868054B00197F3028
:1056100000781B788342F0D270BDC0466401002040
:10562000D52D002010B5C3790400002B08D0064A00
:10563000037981791068DB01C018013021F04FFC3B
:105640000023237210BDC0466401002010B5124B28
:1056500001001A684379DB01D31818007F30047801
:10566000FF2C08D10879C00112185278FF2A0FD0F8
:10567000887990420CD08A799B180132D2B258783E
:105680007E2A01D08A7110BD00234C718B71FAE71C
:1056900001204042F7E7C0466401002070B5F824BD
:1056A0008025A40223786D054D2B4CD12B698020D9
:1056B000E41A2B69C002E41A2969001B15F080F86E
:1056C0002B4B2C4918702B69E21852185D4215407B
:1056D000294B2A4A9B1A2A4A9B1880225205116993
:1056E0009D4234D38020C002401B15F069F8254B41
:1056F000641B1870E411244BE4B21C70A120012338
:105700000025224A22491360C0004D604B68002BDF
:10571000FCD01358DBB2A342F7D21E4901330B7001
:1057200001235360FFF750FF037805001A4CFD2B4F
:105730000FD180235B051869184BC009C018C00140
:105740002818206070BD80242B69E402AFE76D1833
:10575000C5E7FFF745FF0378803DFD2B01D12560AC
:10576000F0E7FFF73DFFFD2121F0B9FBF7E7C04669
:10577000D72D0020FF87FFFF14010020000000202C
:105780000CA80300D62D0020D52D002000D000400D
:10579000FCD00040D82D002064010020FFFFFF0155
:1057A000F7B5254B254F1A78254B14001B7839681F
:1057B0000133E001405CFF2829D00134E4B29C426F
:1057C00000D101249442F4D1802300265B051B699B
:1057D000DB090193E30100933B68E2019D182B78FC
:1057E00028005A425341F61821F08FFB002810D0B0
:1057F000002304E0DA01AA5C002A0AD10133019AED
:105800009342F7D13868009BC01821F074FB200048
:10581000FEBD0B4B01341B78E4B201339C4200D136
:105820000124054B1B78A342D4D1072E02D91FF0C7
:105830002EFAB6E7FF24EAE7D82D00206401002005
:10584000D52D0020F7B507000D0001240E4B1B7865
:1058500001930E4B1E68019BA34202D2FF2420003D
:10586000FEBDE10171180B78FE2B09D18B78AB429C
:1058700006D103312A00380025F0D8F80028EED0F0
:105880000134E4B2E7E7C046D52D002064010020D2
:1058900010B5054A03791068DB01C0188178002231
:1058A0000330FBF74BFF10BD64010020F0B585B05D
:1058B00002900D0016000393782948D8FFF7C2FF25
:1058C0000400002E3BD0FF2801D0FFF795FEFFF724
:1058D00067FF0400FF2803D11E491F481FF016FB75
:1058E0001E4FC0013B680190FE21181821F0F7FA05
:1058F0003B68019AE9B29818023021F0F0FA386852
:10590000019B2A00C018033002990BF0AFFA0C205B
:1059100020F0E3F9039A0300002A16D0104A1A6017
:105920000E4A1C7112685C71E4011419A278DE71D0
:1059300002329A7101221A72039A5A7202E03300FB
:10594000FF28E4D1180005B0F0BD064AE7E70023C0
:10595000F8E7C0464E260300E0B2020064010020D2
:10596000C00403006C05030007B501A9FCF73EFB6A
:105970000199FFF767FFFF2803D1044904481FF08E
:10598000C5FAFFF739FE03480EBDC0468126030065
:10599000E0B2020068E10200F7B50192027A040069
:1059A0000091002A02D1244801F054FAC579002D53
:1059B00006D1224A17680279D201D25D002A05D1A8
:1059C000092201251A606D422800FEBD61797E2200
:1059D000C901791808007F30A3790078D21AFF280E
:1059E00009D12079C00138184078FF2819D0C01A91
:1059F000824200D902000198461B964200D9160047
:105A0000002EE1D0009A01335019C918320025F058
:105A10001CF8A3799B19DBB27E2B04D0A371AD19BE
:105A2000D4E70022E7E70023A3716379DB01FB18C9
:105A30007F331B786371F2E7642603006401002062
:105A4000F0B585B00393037A040002910192002B14
:105A500002D1304801F0FEF9C379002B08D02E4A5C
:105A600003791268DB019B5C019A0092002B25D11F
:105A70000923039A13600A3B0193019805B0F0BD16
:105A80007E22A379D71A009A974200D9170060792D
:105A9000214E0133C001C01833683A00181802992A
:105AA0000BF0E4F9A379DB19DBB27E2B0AD0A371EA
:105AB000029BDB190293009BDB1B0093009B002BD6
:105AC000DED1DAE70023A371FFF76AFE0500FF28A5
:105AD00009D12079FFF790FD002323721C23039A3C
